{
  "contractName": "Exchange",
  "abi": [
    {
      "inputs": [
        {
          "internalType": "address",
          "name": "_tokenAddress",
          "type": "address"
        }
      ],
      "stateMutability": "nonpayable",
      "type": "constructor"
    },
    {
      "inputs": [
        {
          "internalType": "address",
          "name": "spender",
          "type": "address"
        },
        {
          "internalType": "uint256",
          "name": "allowance",
          "type": "uint256"
        },
        {
          "internalType": "uint256",
          "name": "needed",
          "type": "uint256"
        }
      ],
      "name": "ERC20InsufficientAllowance",
      "type": "error"
    },
    {
      "inputs": [
        {
          "internalType": "address",
          "name": "sender",
          "type": "address"
        },
        {
          "internalType": "uint256",
          "name": "balance",
          "type": "uint256"
        },
        {
          "internalType": "uint256",
          "name": "needed",
          "type": "uint256"
        }
      ],
      "name": "ERC20InsufficientBalance",
      "type": "error"
    },
    {
      "inputs": [
        {
          "internalType": "address",
          "name": "approver",
          "type": "address"
        }
      ],
      "name": "ERC20InvalidApprover",
      "type": "error"
    },
    {
      "inputs": [
        {
          "internalType": "address",
          "name": "receiver",
          "type": "address"
        }
      ],
      "name": "ERC20InvalidReceiver",
      "type": "error"
    },
    {
      "inputs": [
        {
          "internalType": "address",
          "name": "sender",
          "type": "address"
        }
      ],
      "name": "ERC20InvalidSender",
      "type": "error"
    },
    {
      "inputs": [
        {
          "internalType": "address",
          "name": "spender",
          "type": "address"
        }
      ],
      "name": "ERC20InvalidSpender",
      "type": "error"
    },
    {
      "inputs": [],
      "name": "ReentrancyGuardReentrantCall",
      "type": "error"
    },
    {
      "anonymous": false,
      "inputs": [
        {
          "indexed": true,
          "internalType": "address",
          "name": "owner",
          "type": "address"
        },
        {
          "indexed": true,
          "internalType": "address",
          "name": "spender",
          "type": "address"
        },
        {
          "indexed": false,
          "internalType": "uint256",
          "name": "value",
          "type": "uint256"
        }
      ],
      "name": "Approval",
      "type": "event"
    },
    {
      "anonymous": false,
      "inputs": [
        {
          "indexed": true,
          "internalType": "address",
          "name": "provider",
          "type": "address"
        },
        {
          "indexed": false,
          "internalType": "uint256",
          "name": "ethAmount",
          "type": "uint256"
        },
        {
          "indexed": false,
          "internalType": "uint256",
          "name": "tokenAmount",
          "type": "uint256"
        }
      ],
      "name": "LiquidityAdded",
      "type": "event"
    },
    {
      "anonymous": false,
      "inputs": [
        {
          "indexed": true,
          "internalType": "address",
          "name": "provider",
          "type": "address"
        },
        {
          "indexed": false,
          "internalType": "uint256",
          "name": "ethAmount",
          "type": "uint256"
        },
        {
          "indexed": false,
          "internalType": "uint256",
          "name": "tokenAmount",
          "type": "uint256"
        }
      ],
      "name": "LiquidityRemoved",
      "type": "event"
    },
    {
      "anonymous": false,
      "inputs": [
        {
          "indexed": true,
          "internalType": "address",
          "name": "buyer",
          "type": "address"
        },
        {
          "indexed": false,
          "internalType": "uint256",
          "name": "ethAmount",
          "type": "uint256"
        },
        {
          "indexed": false,
          "internalType": "uint256",
          "name": "tokensReceived",
          "type": "uint256"
        }
      ],
      "name": "TokenPurchased",
      "type": "event"
    },
    {
      "anonymous": false,
      "inputs": [
        {
          "indexed": true,
          "internalType": "address",
          "name": "seller",
          "type": "address"
        },
        {
          "indexed": false,
          "internalType": "uint256",
          "name": "tokensSold",
          "type": "uint256"
        },
        {
          "indexed": false,
          "internalType": "uint256",
          "name": "ethReceived",
          "type": "uint256"
        }
      ],
      "name": "TokenSold",
      "type": "event"
    },
    {
      "anonymous": false,
      "inputs": [
        {
          "indexed": true,
          "internalType": "address",
          "name": "from",
          "type": "address"
        },
        {
          "indexed": true,
          "internalType": "address",
          "name": "to",
          "type": "address"
        },
        {
          "indexed": false,
          "internalType": "uint256",
          "name": "value",
          "type": "uint256"
        }
      ],
      "name": "Transfer",
      "type": "event"
    },
    {
      "inputs": [
        {
          "internalType": "address",
          "name": "owner",
          "type": "address"
        },
        {
          "internalType": "address",
          "name": "spender",
          "type": "address"
        }
      ],
      "name": "allowance",
      "outputs": [
        {
          "internalType": "uint256",
          "name": "",
          "type": "uint256"
        }
      ],
      "stateMutability": "view",
      "type": "function"
    },
    {
      "inputs": [
        {
          "internalType": "address",
          "name": "spender",
          "type": "address"
        },
        {
          "internalType": "uint256",
          "name": "value",
          "type": "uint256"
        }
      ],
      "name": "approve",
      "outputs": [
        {
          "internalType": "bool",
          "name": "",
          "type": "bool"
        }
      ],
      "stateMutability": "nonpayable",
      "type": "function"
    },
    {
      "inputs": [
        {
          "internalType": "address",
          "name": "account",
          "type": "address"
        }
      ],
      "name": "balanceOf",
      "outputs": [
        {
          "internalType": "uint256",
          "name": "",
          "type": "uint256"
        }
      ],
      "stateMutability": "view",
      "type": "function"
    },
    {
      "inputs": [],
      "name": "decimals",
      "outputs": [
        {
          "internalType": "uint8",
          "name": "",
          "type": "uint8"
        }
      ],
      "stateMutability": "view",
      "type": "function"
    },
    {
      "inputs": [],
      "name": "name",
      "outputs": [
        {
          "internalType": "string",
          "name": "",
          "type": "string"
        }
      ],
      "stateMutability": "view",
      "type": "function"
    },
    {
      "inputs": [],
      "name": "symbol",
      "outputs": [
        {
          "internalType": "string",
          "name": "",
          "type": "string"
        }
      ],
      "stateMutability": "view",
      "type": "function"
    },
    {
      "inputs": [],
      "name": "totalSupply",
      "outputs": [
        {
          "internalType": "uint256",
          "name": "",
          "type": "uint256"
        }
      ],
      "stateMutability": "view",
      "type": "function"
    },
    {
      "inputs": [
        {
          "internalType": "address",
          "name": "to",
          "type": "address"
        },
        {
          "internalType": "uint256",
          "name": "value",
          "type": "uint256"
        }
      ],
      "name": "transfer",
      "outputs": [
        {
          "internalType": "bool",
          "name": "",
          "type": "bool"
        }
      ],
      "stateMutability": "nonpayable",
      "type": "function"
    },
    {
      "inputs": [
        {
          "internalType": "address",
          "name": "from",
          "type": "address"
        },
        {
          "internalType": "address",
          "name": "to",
          "type": "address"
        },
        {
          "internalType": "uint256",
          "name": "value",
          "type": "uint256"
        }
      ],
      "name": "transferFrom",
      "outputs": [
        {
          "internalType": "bool",
          "name": "",
          "type": "bool"
        }
      ],
      "stateMutability": "nonpayable",
      "type": "function"
    },
    {
      "inputs": [],
      "name": "getTokenReserves",
      "outputs": [
        {
          "internalType": "uint256",
          "name": "",
          "type": "uint256"
        }
      ],
      "stateMutability": "view",
      "type": "function"
    },
    {
      "inputs": [
        {
          "internalType": "uint256",
          "name": "ethSold",
          "type": "uint256"
        }
      ],
      "name": "getTokenAmount",
      "outputs": [
        {
          "internalType": "uint256",
          "name": "",
          "type": "uint256"
        }
      ],
      "stateMutability": "view",
      "type": "function"
    },
    {
      "inputs": [
        {
          "internalType": "uint256",
          "name": "tokensSold",
          "type": "uint256"
        }
      ],
      "name": "getEthAmount",
      "outputs": [
        {
          "internalType": "uint256",
          "name": "",
          "type": "uint256"
        }
      ],
      "stateMutability": "view",
      "type": "function"
    },
    {
      "inputs": [
        {
          "internalType": "uint256",
          "name": "inputAmount",
          "type": "uint256"
        },
        {
          "internalType": "uint256",
          "name": "inputReserve",
          "type": "uint256"
        },
        {
          "internalType": "uint256",
          "name": "outputReserve",
          "type": "uint256"
        }
      ],
      "name": "getAmount",
      "outputs": [
        {
          "internalType": "uint256",
          "name": "",
          "type": "uint256"
        }
      ],
      "stateMutability": "pure",
      "type": "function"
    },
    {
      "inputs": [
        {
          "internalType": "uint256",
          "name": "tokensAdded",
          "type": "uint256"
        }
      ],
      "name": "addLiquidity",
      "outputs": [
        {
          "internalType": "uint256",
          "name": "",
          "type": "uint256"
        }
      ],
      "stateMutability": "payable",
      "type": "function"
    },
    {
      "inputs": [
        {
          "internalType": "uint256",
          "name": "tokenAmount",
          "type": "uint256"
        }
      ],
      "name": "removeLiquidity",
      "outputs": [
        {
          "internalType": "uint256",
          "name": "",
          "type": "uint256"
        },
        {
          "internalType": "uint256",
          "name": "",
          "type": "uint256"
        }
      ],
      "stateMutability": "nonpayable",
      "type": "function"
    },
    {
      "inputs": [
        {
          "internalType": "uint256",
          "name": "minTokens",
          "type": "uint256"
        },
        {
          "internalType": "address",
          "name": "recipient",
          "type": "address"
        }
      ],
      "name": "swapEthForTokens",
      "outputs": [
        {
          "internalType": "uint256",
          "name": "",
          "type": "uint256"
        }
      ],
      "stateMutability": "payable",
      "type": "function"
    },
    {
      "inputs": [
        {
          "internalType": "uint256",
          "name": "tokensSold",
          "type": "uint256"
        },
        {
          "internalType": "uint256",
          "name": "minEth",
          "type": "uint256"
        }
      ],
      "name": "tokenForEthSwap",
      "outputs": [
        {
          "internalType": "uint256",
          "name": "",
          "type": "uint256"
        }
      ],
      "stateMutability": "nonpayable",
      "type": "function"
    }
  ],
  "bytecode": "0x60c060405234801562000010575f80fd5b506040516200295d3803806200295d833981810160405281019062000036919062000215565b6040518060400160405280600681526020017f4456582d4c5000000000000000000000000000000000000000000000000000008152506040518060400160405280600681526020017f4456582d4c5000000000000000000000000000000000000000000000000000008152508160039081620000b39190620004a9565b508060049081620000c59190620004a9565b50505060016005819055505f73ffffffffffffffffffffffffffffffffffffffff168173ffffffffffffffffffffffffffffffffffffffff160362000141576040517f08c379a00000000000000000000000000000000000000000000000000000000081526004016200013890620005eb565b60405180910390fd5b8073ffffffffffffffffffffffffffffffffffffffff1660808173ffffffffffffffffffffffffffffffffffffffff16815250503373ffffffffffffffffffffffffffffffffffffffff1660a08173ffffffffffffffffffffffffffffffffffffffff1681525050506200060b565b5f80fd5b5f73ffffffffffffffffffffffffffffffffffffffff82169050919050565b5f620001df82620001b4565b9050919050565b620001f181620001d3565b8114620001fc575f80fd5b50565b5f815190506200020f81620001e6565b92915050565b5f602082840312156200022d576200022c620001b0565b5b5f6200023c84828501620001ff565b91505092915050565b5f81519050919050565b7f4e487b71000000000000000000000000000000000000000000000000000000005f52604160045260245ffd5b7f4e487b71000000000000000000000000000000000000000000000000000000005f52602260045260245ffd5b5f6002820490506001821680620002c157607f821691505b602082108103620002d757620002d66200027c565b5b50919050565b5f819050815f5260205f209050919050565b5f6020601f8301049050919050565b5f82821b905092915050565b5f600883026200033b7fffffffffffffffffffffffffffffffffffffffffffffffffffffffffffffffff82620002fe565b620003478683620002fe565b95508019841693508086168417925050509392505050565b5f819050919050565b5f819050919050565b5f620003916200038b62000385846200035f565b62000368565b6200035f565b9050919050565b5f819050919050565b620003ac8362000371565b620003c4620003bb8262000398565b8484546200030a565b825550505050565b5f90565b620003da620003cc565b620003e7818484620003a1565b505050565b5b818110156200040e57620004025f82620003d0565b600181019050620003ed565b5050565b601f8211156200045d576200042781620002dd565b6200043284620002ef565b8101602085101562000442578190505b6200045a6200045185620002ef565b830182620003ec565b50505b505050565b5f82821c905092915050565b5f6200047f5f198460080262000462565b1980831691505092915050565b5f6200049983836200046e565b9150826002028217905092915050565b620004b48262000245565b67ffffffffffffffff811115620004d057620004cf6200024f565b5b620004dc8254620002a9565b620004e982828562000412565b5f60209050601f8311600181146200051f575f84156200050a578287015190505b6200051685826200048c565b86555062000585565b601f1984166200052f86620002dd565b5f5b82811015620005585784890151825560018201915060208501945060208101905062000531565b8683101562000578578489015162000574601f8916826200046e565b8355505b6001600288020188555050505b505050505050565b5f82825260208201905092915050565b7f546f6b656e20616464726573732063616e6e6f742062652030783000000000005f82015250565b5f620005d3601b836200058d565b9150620005e0826200059d565b602082019050919050565b5f6020820190508181035f8301526200060481620005c5565b9050919050565b60805160a0516123026200065b5f395f50505f8181610671015281816107e4015281816108bd015281816109f101528181610aca01528181610c2e01528181610f9601526110ba01526123025ff3fe6080604052600436106100fd575f3560e01c806364338a30116100945780639c8f9f23116100635780639c8f9f2314610371578063a9059cbb146103ae578063b9cf5005146103ea578063c2507ac114610414578063dd62ed3e14610450576100fd565b806364338a301461029357806370a08231146102cf5780638fc7a25d1461030b57806395d89b4114610347576100fd565b806329c45cb6116100d057806329c45cb6146101cd5780633091525014610209578063313ce5671461023957806351c6590a14610263576100fd565b806306fdde0314610101578063095ea7b31461012b57806318160ddd1461016757806323b872dd14610191575b5f80fd5b34801561010c575f80fd5b5061011561048c565b604051610122919061199e565b60405180910390f35b348015610136575f80fd5b50610151600480360381019061014c9190611a4f565b61051c565b60405161015e9190611aa7565b60405180910390f35b348015610172575f80fd5b5061017b61053e565b6040516101889190611acf565b60405180910390f35b34801561019c575f80fd5b506101b760048036038101906101b29190611ae8565b610547565b6040516101c49190611aa7565b60405180910390f35b3480156101d8575f80fd5b506101f360048036038101906101ee9190611b38565b610575565b6040516102009190611acf565b60405180910390f35b610223600480360381019061021e9190611b88565b610617565b6040516102309190611acf565b60405180910390f35b348015610244575f80fd5b5061024d61076d565b60405161025a9190611be1565b60405180910390f35b61027d60048036038101906102789190611bfa565b610775565b60405161028a9190611acf565b60405180910390f35b34801561029e575f80fd5b506102b960048036038101906102b49190611c25565b610bd4565b6040516102c69190611acf565b60405180910390f35b3480156102da575f80fd5b506102f560048036038101906102f09190611c63565b610d70565b6040516103029190611acf565b60405180910390f35b348015610316575f80fd5b50610331600480360381019061032c9190611bfa565b610db5565b60405161033e9190611acf565b60405180910390f35b348015610352575f80fd5b5061035b610e21565b604051610368919061199e565b60405180910390f35b34801561037c575f80fd5b5061039760048036038101906103929190611bfa565b610eb1565b6040516103a5929190611c8e565b60405180910390f35b3480156103b9575f80fd5b506103d460048036038101906103cf9190611a4f565b611095565b6040516103e19190611aa7565b60405180910390f35b3480156103f5575f80fd5b506103fe6110b7565b60405161040b9190611acf565b60405180910390f35b34801561041f575f80fd5b5061043a60048036038101906104359190611bfa565b611155565b6040516104479190611acf565b60405180910390f35b34801561045b575f80fd5b5061047660048036038101906104719190611cb5565b6111c1565b6040516104839190611acf565b60405180910390f35b60606003805461049b90611d20565b80601f01602080910402602001604051908101604052809291908181526020018280546104c790611d20565b80156105125780601f106104e957610100808354040283529160200191610512565b820191905f5260205f20905b8154815290600101906020018083116104f557829003601f168201915b5050505050905090565b5f80610526611243565b905061053381858561124a565b600191505092915050565b5f600254905090565b5f80610551611243565b905061055e85828561125c565b6105698585856112ee565b60019150509392505050565b5f808311801561058457505f84115b6105c3576040517f08c379a00000000000000000000000000000000000000000000000000000000081526004016105ba90611d9a565b60405180910390fd5b5f6103e5856105d29190611de5565b90505f83826105e19190611de5565b90505f826103e8876105f39190611de5565b6105fd9190611e26565b9050808261060b9190611e86565b93505050509392505050565b5f6106206113de565b5f61062a34611155565b90508381101561066f576040517f08c379a000000000000000000000000000000000000000000000000000000000815260040161066690611f00565b60405180910390fd5b7f000000000000000000000000000000000000000000000000000000000000000073ffffffffffffffffffffffffffffffffffffffff1663a9059cbb84836040518363ffffffff1660e01b81526004016106ca929190611f2d565b6020604051808303815f875af11580156106e6573d5f803e3d5ffd5b505050506040513d601f19601f8201168201806040525081019061070a9190611f7e565b503373ffffffffffffffffffffffffffffffffffffffff167f3ceffd410054fdaed44f598ff5c1fb450658778e2241892da4aa646979dee6173483604051610753929190611c8e565b60405180910390a280915050610767611424565b92915050565b5f6012905090565b5f61077e6113de565b5f3411801561078c57505f82115b6107cb576040517f08c379a00000000000000000000000000000000000000000000000000000000081526004016107c290611d9a565b60405180910390fd5b5f4790505f6107d86110b7565b90505f81036109c257837f000000000000000000000000000000000000000000000000000000000000000073ffffffffffffffffffffffffffffffffffffffff166370a08231336040518263ffffffff1660e01b815260040161083b9190611fa9565b602060405180830381865afa158015610856573d5f803e3d5ffd5b505050506040513d601f19601f8201168201806040525081019061087a9190611fd6565b10156108bb576040517f08c379a00000000000000000000000000000000000000000000000000000000081526004016108b29061204b565b60405180910390fd5b7f000000000000000000000000000000000000000000000000000000000000000073ffffffffffffffffffffffffffffffffffffffff166323b872dd3330876040518463ffffffff1660e01b815260040161091893929190612069565b6020604051808303815f875af1158015610934573d5f803e3d5ffd5b505050506040513d601f19601f820116820180604052508101906109589190611f7e565b505f829050610967338261142e565b3373ffffffffffffffffffffffffffffffffffffffff167fac1d76749e5447b7b16f5ab61447e1bd502f3bb4807af3b28e620d1700a6ee4534876040516109af929190611c8e565b60405180910390a2809350505050610bc7565b5f34836109cf919061209e565b6109d761053e565b346109e29190611de5565b6109ec9190611e86565b9050847f000000000000000000000000000000000000000000000000000000000000000073ffffffffffffffffffffffffffffffffffffffff166370a08231336040518263ffffffff1660e01b8152600401610a489190611fa9565b602060405180830381865afa158015610a63573d5f803e3d5ffd5b505050506040513d601f19601f82011682018060405250810190610a879190611fd6565b1015610ac8576040517f08c379a0000000000000000000000000000000000000000000000000000000008152600401610abf9061204b565b60405180910390fd5b7f000000000000000000000000000000000000000000000000000000000000000073ffffffffffffffffffffffffffffffffffffffff166323b872dd3330886040518463ffffffff1660e01b8152600401610b2593929190612069565b6020604051808303815f875af1158015610b41573d5f803e3d5ffd5b505050506040513d601f19601f82011682018060405250810190610b659190611f7e565b50610b70338261142e565b3373ffffffffffffffffffffffffffffffffffffffff167fac1d76749e5447b7b16f5ab61447e1bd502f3bb4807af3b28e620d1700a6ee453487604051610bb8929190611c8e565b60405180910390a28093505050505b610bcf611424565b919050565b5f610bdd6113de565b5f610be784610db5565b905082811015610c2c576040517f08c379a0000000000000000000000000000000000000000000000000000000008152600401610c239061211b565b60405180910390fd5b7f000000000000000000000000000000000000000000000000000000000000000073ffffffffffffffffffffffffffffffffffffffff166323b872dd3330876040518463ffffffff1660e01b8152600401610c8993929190612069565b6020604051808303815f875af1158015610ca5573d5f803e3d5ffd5b505050506040513d601f19601f82011682018060405250810190610cc99190611f7e565b503373ffffffffffffffffffffffffffffffffffffffff166108fc8290811502906040515f60405180830381858888f19350505050158015610d0d573d5f803e3d5ffd5b503373ffffffffffffffffffffffffffffffffffffffff167f35ea94addbc62df281ade49cc2ad9b3d9259166170cf702928b4ddc045f7256e8583604051610d56929190611c8e565b60405180910390a280915050610d6a611424565b92915050565b5f805f8373ffffffffffffffffffffffffffffffffffffffff1673ffffffffffffffffffffffffffffffffffffffff1681526020019081526020015f20549050919050565b5f808211610df8576040517f08c379a0000000000000000000000000000000000000000000000000000000008152600401610def906121a9565b60405180910390fd5b5f610e016110b7565b9050610e19838483610e13919061209e565b47610575565b915050919050565b606060048054610e3090611d20565b80601f0160208091040260200160405190810160405280929190818152602001828054610e5c90611d20565b8015610ea75780601f10610e7e57610100808354040283529160200191610ea7565b820191905f5260205f20905b815481529060010190602001808311610e8a57829003601f168201915b5050505050905090565b5f80610ebb6113de565b5f8311610efd576040517f08c379a0000000000000000000000000000000000000000000000000000000008152600401610ef490612211565b60405180910390fd5b5f610f0661053e565b8447610f129190611de5565b610f1c9190611e86565b90505f610f2761053e565b85610f306110b7565b610f3a9190611de5565b610f449190611e86565b9050610f5033866114ad565b3373ffffffffffffffffffffffffffffffffffffffff166108fc8390811502906040515f60405180830381858888f19350505050158015610f93573d5f803e3d5ffd5b507f000000000000000000000000000000000000000000000000000000000000000073ffffffffffffffffffffffffffffffffffffffff1663a9059cbb33836040518363ffffffff1660e01b8152600401610fef929190611f2d565b6020604051808303815f875af115801561100b573d5f803e3d5ffd5b505050506040513d601f19601f8201168201806040525081019061102f9190611f7e565b503373ffffffffffffffffffffffffffffffffffffffff167f96cd817c6329656790ef8fba7675405193677d39619571282f5e21f3a98cd0598383604051611078929190611c8e565b60405180910390a28181935093505050611090611424565b915091565b5f8061109f611243565b90506110ac8185856112ee565b600191505092915050565b5f7f000000000000000000000000000000000000000000000000000000000000000073ffffffffffffffffffffffffffffffffffffffff166370a08231306040518263ffffffff1660e01b81526004016111119190611fa9565b602060405180830381865afa15801561112c573d5f803e3d5ffd5b505050506040513d601f19601f820116820180604052508101906111509190611fd6565b905090565b5f808211611198576040517f08c379a000000000000000000000000000000000000000000000000000000000815260040161118f90612279565b60405180910390fd5b5f6111a16110b7565b90506111b98384476111b3919061209e565b83610575565b915050919050565b5f60015f8473ffffffffffffffffffffffffffffffffffffffff1673ffffffffffffffffffffffffffffffffffffffff1681526020019081526020015f205f8373ffffffffffffffffffffffffffffffffffffffff1673ffffffffffffffffffffffffffffffffffffffff1681526020019081526020015f2054905092915050565b5f33905090565b611257838383600161152c565b505050565b5f61126784846111c1565b90507fffffffffffffffffffffffffffffffffffffffffffffffffffffffffffffffff81146112e857818110156112d9578281836040517ffb8f41b20000000000000000000000000000000000000000000000000000000081526004016112d093929190612297565b60405180910390fd5b6112e784848484035f61152c565b5b50505050565b5f73ffffffffffffffffffffffffffffffffffffffff168373ffffffffffffffffffffffffffffffffffffffff160361135e575f6040517f96c6fd1e0000000000000000000000000000000000000000000000000000000081526004016113559190611fa9565b60405180910390fd5b5f73ffffffffffffffffffffffffffffffffffffffff168273ffffffffffffffffffffffffffffffffffffffff16036113ce575f6040517fec442f050000000000000000000000000000000000000000000000000000000081526004016113c59190611fa9565b60405180910390fd5b6113d98383836116fb565b505050565b60026005540361141a576040517f3ee5aeb500000000000000000000000000000000000000000000000000000000815260040160405180910390fd5b6002600581905550565b6001600581905550565b5f73ffffffffffffffffffffffffffffffffffffffff168273ffffffffffffffffffffffffffffffffffffffff160361149e575f6040517fec442f050000000000000000000000000000000000000000000000000000000081526004016114959190611fa9565b60405180910390fd5b6114a95f83836116fb565b5050565b5f73ffffffffffffffffffffffffffffffffffffffff168273ffffffffffffffffffffffffffffffffffffffff160361151d575f6040517f96c6fd1e0000000000000000000000000000000000000000000000000000000081526004016115149190611fa9565b60405180910390fd5b611528825f836116fb565b5050565b5f73ffffffffffffffffffffffffffffffffffffffff168473ffffffffffffffffffffffffffffffffffffffff160361159c575f6040517fe602df050000000000000000000000000000000000000000000000000000000081526004016115939190611fa9565b60405180910390fd5b5f73ffffffffffffffffffffffffffffffffffffffff168373ffffffffffffffffffffffffffffffffffffffff160361160c575f6040517f94280d620000000000000000000000000000000000000000000000000000000081526004016116039190611fa9565b60405180910390fd5b8160015f8673ffffffffffffffffffffffffffffffffffffffff1673ffffffffffffffffffffffffffffffffffffffff1681526020019081526020015f205f8573ffffffffffffffffffffffffffffffffffffffff1673ffffffffffffffffffffffffffffffffffffffff1681526020019081526020015f208190555080156116f5578273ffffffffffffffffffffffffffffffffffffffff168473ffffffffffffffffffffffffffffffffffffffff167f8c5be1e5ebec7d5bd14f71427d1e84f3dd0314c0f7b2291e5b200ac8c7c3b925846040516116ec9190611acf565b60405180910390a35b50505050565b5f73ffffffffffffffffffffffffffffffffffffffff168373ffffffffffffffffffffffffffffffffffffffff160361174b578060025f82825461173f9190611e26565b92505081905550611819565b5f805f8573ffffffffffffffffffffffffffffffffffffffff1673ffffffffffffffffffffffffffffffffffffffff1681526020019081526020015f20549050818110156117d4578381836040517fe450d38c0000000000000000000000000000000000000000000000000000000081526004016117cb93929190612297565b60405180910390fd5b8181035f808673ffffffffffffffffffffffffffffffffffffffff1673ffffffffffffffffffffffffffffffffffffffff1681526020019081526020015f2081905550505b5f73ffffffffffffffffffffffffffffffffffffffff168273ffffffffffffffffffffffffffffffffffffffff1603611860578060025f82825403925050819055506118aa565b805f808473ffffffffffffffffffffffffffffffffffffffff1673ffffffffffffffffffffffffffffffffffffffff1681526020019081526020015f205f82825401925050819055505b8173ffffffffffffffffffffffffffffffffffffffff168373ffffffffffffffffffffffffffffffffffffffff167fddf252ad1be2c89b69c2b068fc378daa952ba7f163c4a11628f55a4df523b3ef836040516119079190611acf565b60405180910390a3505050565b5f81519050919050565b5f82825260208201905092915050565b5f5b8381101561194b578082015181840152602081019050611930565b5f8484015250505050565b5f601f19601f8301169050919050565b5f61197082611914565b61197a818561191e565b935061198a81856020860161192e565b61199381611956565b840191505092915050565b5f6020820190508181035f8301526119b68184611966565b905092915050565b5f80fd5b5f73ffffffffffffffffffffffffffffffffffffffff82169050919050565b5f6119eb826119c2565b9050919050565b6119fb816119e1565b8114611a05575f80fd5b50565b5f81359050611a16816119f2565b92915050565b5f819050919050565b611a2e81611a1c565b8114611a38575f80fd5b50565b5f81359050611a4981611a25565b92915050565b5f8060408385031215611a6557611a646119be565b5b5f611a7285828601611a08565b9250506020611a8385828601611a3b565b9150509250929050565b5f8115159050919050565b611aa181611a8d565b82525050565b5f602082019050611aba5f830184611a98565b92915050565b611ac981611a1c565b82525050565b5f602082019050611ae25f830184611ac0565b92915050565b5f805f60608486031215611aff57611afe6119be565b5b5f611b0c86828701611a08565b9350506020611b1d86828701611a08565b9250506040611b2e86828701611a3b565b9150509250925092565b5f805f60608486031215611b4f57611b4e6119be565b5b5f611b5c86828701611a3b565b9350506020611b6d86828701611a3b565b9250506040611b7e86828701611a3b565b9150509250925092565b5f8060408385031215611b9e57611b9d6119be565b5b5f611bab85828601611a3b565b9250506020611bbc85828601611a08565b9150509250929050565b5f60ff82169050919050565b611bdb81611bc6565b82525050565b5f602082019050611bf45f830184611bd2565b92915050565b5f60208284031215611c0f57611c0e6119be565b5b5f611c1c84828501611a3b565b91505092915050565b5f8060408385031215611c3b57611c3a6119be565b5b5f611c4885828601611a3b565b9250506020611c5985828601611a3b565b9150509250929050565b5f60208284031215611c7857611c776119be565b5b5f611c8584828501611a08565b91505092915050565b5f604082019050611ca15f830185611ac0565b611cae6020830184611ac0565b9392505050565b5f8060408385031215611ccb57611cca6119be565b5b5f611cd885828601611a08565b9250506020611ce985828601611a08565b9150509250929050565b7f4e487b71000000000000000000000000000000000000000000000000000000005f52602260045260245ffd5b5f6002820490506001821680611d3757607f821691505b602082108103611d4a57611d49611cf3565b5b50919050565b7f496e76616c69642076616c7565732070726f76696465640000000000000000005f82015250565b5f611d8460178361191e565b9150611d8f82611d50565b602082019050919050565b5f6020820190508181035f830152611db181611d78565b9050919050565b7f4e487b71000000000000000000000000000000000000000000000000000000005f52601160045260245ffd5b5f611def82611a1c565b9150611dfa83611a1c565b9250828202611e0881611a1c565b91508282048414831517611e1f57611e1e611db8565b5b5092915050565b5f611e3082611a1c565b9150611e3b83611a1c565b9250828201905080821115611e5357611e52611db8565b5b92915050565b7f4e487b71000000000000000000000000000000000000000000000000000000005f52601260045260245ffd5b5f611e9082611a1c565b9150611e9b83611a1c565b925082611eab57611eaa611e59565b5b828204905092915050565b7f546f6b656e20616d6f756e74206c657373207468616e206578706563746564005f82015250565b5f611eea601f8361191e565b9150611ef582611eb6565b602082019050919050565b5f6020820190508181035f830152611f1781611ede565b9050919050565b611f27816119e1565b82525050565b5f604082019050611f405f830185611f1e565b611f4d6020830184611ac0565b9392505050565b611f5d81611a8d565b8114611f67575f80fd5b50565b5f81519050611f7881611f54565b92915050565b5f60208284031215611f9357611f926119be565b5b5f611fa084828501611f6a565b91505092915050565b5f602082019050611fbc5f830184611f1e565b92915050565b5f81519050611fd081611a25565b92915050565b5f60208284031215611feb57611fea6119be565b5b5f611ff884828501611fc2565b91505092915050565b7f496e73756666696369656e7420746f6b656e2062616c616e63650000000000005f82015250565b5f612035601a8361191e565b915061204082612001565b602082019050919050565b5f6020820190508181035f83015261206281612029565b9050919050565b5f60608201905061207c5f830186611f1e565b6120896020830185611f1e565b6120966040830184611ac0565b949350505050565b5f6120a882611a1c565b91506120b383611a1c565b92508282039050818111156120cb576120ca611db8565b5b92915050565b7f45544820616d6f756e74206c657373207468616e2065787065637465640000005f82015250565b5f612105601d8361191e565b9150612110826120d1565b602082019050919050565b5f6020820190508181035f830152612132816120f9565b9050919050565b7f546f6b656e7320736f6c64206d7573742062652067726561746572207468616e5f8201527f2030000000000000000000000000000000000000000000000000000000000000602082015250565b5f61219360228361191e565b915061219e82612139565b604082019050919050565b5f6020820190508181035f8301526121c081612187565b9050919050565b7f496e76616c696420746f6b656e20616d6f756e740000000000000000000000005f82015250565b5f6121fb60148361191e565b9150612206826121c7565b602082019050919050565b5f6020820190508181035f830152612228816121ef565b9050919050565b7f45544820736f6c64206d7573742062652067726561746572207468616e2030005f82015250565b5f612263601f8361191e565b915061226e8261222f565b602082019050919050565b5f6020820190508181035f83015261229081612257565b9050919050565b5f6060820190506122aa5f830186611f1e565b6122b76020830185611ac0565b6122c46040830184611ac0565b94935050505056fea2646970667358221220c5c302052ab8ccb5ff87c53a6e6d6a2c7b6e6f7c260fd93748900017aaa1b55d64736f6c63430008150033",
  "immutableReferences": {
    "1048": [
      {
        "length": 32,
        "start": 1649
      },
      {
        "length": 32,
        "start": 2020
      },
      {
        "length": 32,
        "start": 2237
      },
      {
        "length": 32,
        "start": 2545
      },
      {
        "length": 32,
        "start": 2762
      },
      {
        "length": 32,
        "start": 3118
      },
      {
        "length": 32,
        "start": 3990
      },
      {
        "length": 32,
        "start": 4282
      }
    ]
  },
  "source": "// SPDX-License-Identifier: MIT\npragma solidity ^0.8.13;\n\n// Importa o ERC20 da OpenZeppelin para tokens de liquidez (LP tokens)\nimport \"@openzeppelin/contracts/token/ERC20/ERC20.sol\"; \n// Importa ReentrancyGuard da OpenZeppelin para prevenir ataques de reentrncia\nimport \"@openzeppelin/contracts/utils/ReentrancyGuard.sol\"; \n\n// O contrato Exchange facilita a troca de ETH e tokens DVX e a gesto de liquidez\n// Seguindo as melhores prticas em design modular, reentrncia, controle de acesso e otimizao de gs\ncontract Exchange is ERC20, ReentrancyGuard {\n    \n    // Endereo do token DVX usado nas trocas\n    address immutable tokenAddress; \n    // Endereo do contrato Factory que cria esta Exchange\n    address immutable factoryAddress;\n\n    // Eventos para registrar atividades importantes de liquidez e swaps\n    event LiquidityAdded(address indexed provider, uint ethAmount, uint tokenAmount);\n    event LiquidityRemoved(address indexed provider, uint ethAmount, uint tokenAmount);\n    event TokenPurchased(address indexed buyer, uint ethAmount, uint tokensReceived);\n    event TokenSold(address indexed seller, uint tokensSold, uint ethReceived);\n\n    // **Construtor**\n    // Inicializa o contrato com o token DVX e o Factory, e define os tokens de liquidez como DVX-LP\n    constructor(address _tokenAddress) ERC20(\"DVX-LP\", \"DVX-LP\") {\n        require(_tokenAddress != address(0), \"Token address cannot be 0x0\");  // Evita endereos invalidos\n        tokenAddress = _tokenAddress;  \n        factoryAddress = msg.sender;  // Define o contrato Factory que criou esta Exchange\n    }\n\n    // **Funo getTokenReserves**\n    // Retorna as reservas de tokens DVX presentes na pool\n    function getTokenReserves() public view returns (uint256) {\n        return IERC20(tokenAddress).balanceOf(address(this));  // Consulta o saldo de tokens DVX na pool\n    }\n\n    // **Funo getTokenAmount**\n    // Calcula quantos tokens DVX o utilizador recebe ao vender ETH\n    function getTokenAmount(uint ethSold) public view returns (uint256) {\n        require(ethSold > 0, \"ETH sold must be greater than 0\");\n        uint outputReserve = getTokenReserves();\n        return getAmount(ethSold, address(this).balance - ethSold, outputReserve);\n    }\n\n    // **Funo getEthAmount**\n    // Calcula quanto ETH o utilizador recebe ao vender tokens DVX\n    function getEthAmount(uint tokensSold) public view returns (uint256) {\n        require(tokensSold > 0, \"Tokens sold must be greater than 0\");\n        uint inputReserve = getTokenReserves();\n        return getAmount(tokensSold, inputReserve - tokensSold, address(this).balance);\n    }\n\n    // **Funo getAmount** (Design Modular)\n    // Funo auxiliar para calcular o valor de trocas (ETH -> tokens ou tokens -> ETH), aplicando uma taxa de 0,3%\n    function getAmount(uint inputAmount, uint inputReserve, uint outputReserve) public pure returns (uint256) {\n        require(inputReserve > 0 && inputAmount > 0, \"Invalid values provided\");\n        uint256 inputAmountWithFee = inputAmount * 997;  // Aplica a taxa de 0,3%\n        uint256 numerator = inputAmountWithFee * outputReserve;\n        uint256 denominator = (inputReserve * 1000) + inputAmountWithFee;\n        return numerator / denominator;\n    }\n\n    // **Funo addLiquidity** (ReentrancyGuard + Controle de Acesso)\n    // Permite que os utilizadores adicionem liquidez  pool e recebam tokens de liquidez (DVX-LP)\n    function addLiquidity(uint tokensAdded) external payable nonReentrant returns (uint256) {\n        require(msg.value > 0 && tokensAdded > 0, \"Invalid values provided\");  // Tratamento de erros com require\n        uint ethBalance = address(this).balance;\n        uint tokenBalance = getTokenReserves();\n\n        if (tokenBalance == 0) {\n            // Primeira adio de liquidez\n            require(IERC20(tokenAddress).balanceOf(msg.sender) >= tokensAdded, \"Insufficient token balance\");\n            IERC20(tokenAddress).transferFrom(msg.sender, address(this), tokensAdded);  // Transferencia dos tokens DVX\n            uint liquidity = ethBalance;\n            _mint(msg.sender, liquidity);  // Emite tokens de liquidez (DVX-LP)\n            emit LiquidityAdded(msg.sender, msg.value, tokensAdded);  // Emite evento\n            return liquidity;\n        } else {\n            // Adies subsequentes de liquidez\n            uint liquidity = (msg.value * totalSupply()) / (ethBalance - msg.value);\n            require(IERC20(tokenAddress).balanceOf(msg.sender) >= tokensAdded, \"Insufficient token balance\");\n            IERC20(tokenAddress).transferFrom(msg.sender, address(this), tokensAdded);\n            _mint(msg.sender, liquidity);  // Emite tokens de liquidez (DVX-LP)\n            emit LiquidityAdded(msg.sender, msg.value, tokensAdded);  // Emite evento\n            return liquidity;\n        }\n    }\n    \n    // **Funo removeLiquidity** (ReentrancyGuard + Tratamento de Erros)\n    // Permite remover liquidez da pool e queima os tokens de liquidez (DVX-LP)\n    function removeLiquidity(uint256 tokenAmount) external nonReentrant returns (uint, uint) {\n        require(tokenAmount > 0, \"Invalid token amount\");\n\n        uint ethAmount = (address(this).balance * tokenAmount) / totalSupply();  // Calcula quanto ETH o utilizador recebe\n        uint tokenAmt = (getTokenReserves() * tokenAmount) / totalSupply();  // Calcula quantos tokens DVX o utilizador recebe\n\n        _burn(msg.sender, tokenAmount);  // Queima os tokens de liquidez (DVX-LP)\n        payable(msg.sender).transfer(ethAmount);  // Transfere ETH para o utilizador\n        IERC20(tokenAddress).transfer(msg.sender, tokenAmt);  // Transfere tokens DVX para o utilizador\n\n        emit LiquidityRemoved(msg.sender, ethAmount, tokenAmt);  // Emite evento\n        return (ethAmount, tokenAmt);\n    }\n\n    // **Funo swapEthForTokens** (Otimizao de Gs + ReentrancyGuard)\n    // Troca ETH por tokens DVX, garantindo que o utilizador receba pelo menos o mnimo especificado de tokens\n    function swapEthForTokens(uint minTokens, address recipient) external payable nonReentrant returns (uint) {\n        uint tokenAmount = getTokenAmount(msg.value);  // Calcula quantos tokens DVX o utilizador receber\n        require(tokenAmount >= minTokens, \"Token amount less than expected\");\n\n        IERC20(tokenAddress).transfer(recipient, tokenAmount);  // Transfere tokens DVX para o destinatrio\n        emit TokenPurchased(msg.sender, msg.value, tokenAmount);  // Emite evento de compra de tokens\n        return tokenAmount;\n    }\n\n    // **Funo tokenForEthSwap** (Tratamento de Erros + ReentrancyGuard)\n    // Troca tokens DVX por ETH, garantindo que o utilizador receba pelo menos o mnimo especificado de ETH\n    function tokenForEthSwap(uint tokensSold, uint minEth) external nonReentrant returns (uint) {\n        uint ethAmount = getEthAmount(tokensSold);  // Calcula quanto ETH o utilizador receber\n        require(ethAmount >= minEth, \"ETH amount less than expected\");\n\n        IERC20(tokenAddress).transferFrom(msg.sender, address(this), tokensSold);  // Transfere tokens DVX para a pool\n        payable(msg.sender).transfer(ethAmount);  // Transfere ETH de volta ao utilizador\n        emit TokenSold(msg.sender, tokensSold, ethAmount);  // Emite evento de venda de tokens\n        return ethAmount;\n    }\n}",
  "sourcePath": "C:\\Users\\DELL\\DERIVEX DAO\\.foundry\\derivexdao\\src\\contracts\\Exchange.sol",
  "compiler": {
    "name": "solc",
    "version": "0.8.21+commit.d9974bed.Emscripten.clang"
  },
  "schemaVersion": "3.4.16",
  "updatedAt": "2024-10-08T17:19:36.707Z",
  "devdoc": {
    "errors": {
      "ERC20InsufficientAllowance(address,uint256,uint256)": [
        {
          "details": "Indicates a failure with the `spender`s `allowance`. Used in transfers.",
          "params": {
            "allowance": "Amount of tokens a `spender` is allowed to operate with.",
            "needed": "Minimum amount required to perform a transfer.",
            "spender": "Address that may be allowed to operate on tokens without being their owner."
          }
        }
      ],
      "ERC20InsufficientBalance(address,uint256,uint256)": [
        {
          "details": "Indicates an error related to the current `balance` of a `sender`. Used in transfers.",
          "params": {
            "balance": "Current balance for the interacting account.",
            "needed": "Minimum amount required to perform a transfer.",
            "sender": "Address whose tokens are being transferred."
          }
        }
      ],
      "ERC20InvalidApprover(address)": [
        {
          "details": "Indicates a failure with the `approver` of a token to be approved. Used in approvals.",
          "params": {
            "approver": "Address initiating an approval operation."
          }
        }
      ],
      "ERC20InvalidReceiver(address)": [
        {
          "details": "Indicates a failure with the token `receiver`. Used in transfers.",
          "params": {
            "receiver": "Address to which tokens are being transferred."
          }
        }
      ],
      "ERC20InvalidSender(address)": [
        {
          "details": "Indicates a failure with the token `sender`. Used in transfers.",
          "params": {
            "sender": "Address whose tokens are being transferred."
          }
        }
      ],
      "ERC20InvalidSpender(address)": [
        {
          "details": "Indicates a failure with the `spender` to be approved. Used in approvals.",
          "params": {
            "spender": "Address that may be allowed to operate on tokens without being their owner."
          }
        }
      ],
      "ReentrancyGuardReentrantCall()": [
        {
          "details": "Unauthorized reentrant call."
        }
      ]
    },
    "events": {
      "Approval(address,address,uint256)": {
        "details": "Emitted when the allowance of a `spender` for an `owner` is set by a call to {approve}. `value` is the new allowance."
      },
      "Transfer(address,address,uint256)": {
        "details": "Emitted when `value` tokens are moved from one account (`from`) to another (`to`). Note that `value` may be zero."
      }
    },
    "kind": "dev",
    "methods": {
      "allowance(address,address)": {
        "details": "See {IERC20-allowance}."
      },
      "approve(address,uint256)": {
        "details": "See {IERC20-approve}. NOTE: If `value` is the maximum `uint256`, the allowance is not updated on `transferFrom`. This is semantically equivalent to an infinite approval. Requirements: - `spender` cannot be the zero address."
      },
      "balanceOf(address)": {
        "details": "See {IERC20-balanceOf}."
      },
      "decimals()": {
        "details": "Returns the number of decimals used to get its user representation. For example, if `decimals` equals `2`, a balance of `505` tokens should be displayed to a user as `5.05` (`505 / 10 ** 2`). Tokens usually opt for a value of 18, imitating the relationship between Ether and Wei. This is the default value returned by this function, unless it's overridden. NOTE: This information is only used for _display_ purposes: it in no way affects any of the arithmetic of the contract, including {IERC20-balanceOf} and {IERC20-transfer}."
      },
      "name()": {
        "details": "Returns the name of the token."
      },
      "symbol()": {
        "details": "Returns the symbol of the token, usually a shorter version of the name."
      },
      "totalSupply()": {
        "details": "See {IERC20-totalSupply}."
      },
      "transfer(address,uint256)": {
        "details": "See {IERC20-transfer}. Requirements: - `to` cannot be the zero address. - the caller must have a balance of at least `value`."
      },
      "transferFrom(address,address,uint256)": {
        "details": "See {IERC20-transferFrom}. Emits an {Approval} event indicating the updated allowance. This is not required by the EIP. See the note at the beginning of {ERC20}. NOTE: Does not update the allowance if the current allowance is the maximum `uint256`. Requirements: - `from` and `to` cannot be the zero address. - `from` must have a balance of at least `value`. - the caller must have allowance for ``from``'s tokens of at least `value`."
      }
    },
    "version": 1
  },
  "userdoc": {
    "kind": "user",
    "methods": {},
    "version": 1
  }
}